:020000020000FC
:2000000034044000140840083A68000800000000000000000000000000000000000000005A
:200020003408C0061400C4DE3408800614FEA1D634088000141182103408C0001489C218D7
:200040002603C010150000100401801036FDFF1080050301C00D030106FF3F0004FDFFDE2F
:20006000150140DC150000DC3A8823283A882120440140013A8809301502C0DF002F0201E4
:200080003A880B103A88098840230201C4FFBF100402C080350000184400000135040081A6
:2000A000CC3F0011350000813AD20410CC3F80103501808004208000350080181702C0DF54
:2000C000170140DC170000DC0403C0DE3A2800F84C0080313A884B293A888B2935034021B8
:2000E000040400210424800035008020370080208C0080101EFD3F1037008020FAD1041047
:200100004C0080103A2800F80404C02026020028041A800006010000040880003500801873
:20012000370080188C0080101EFD3F10370380203A2800F8CC3F4029350340210404002100
:200140002602003004148000060100000404800035008020370080208C0080101EFD3F10EE
:2001600037008020FAD104104C0080103A2800F804FEFFDE150000DC170420D4CC3F402148
:20018000040E00011501C0DF402302018300C080CC3F80102E05C0101705A0D00401C0007F
:2001A0004500C01044008000060100003A8805001701C0DF170000DC0402C0DE3A2800F8F0
:2001C000CC3F4029BAD00A28340880013A880500047D8831CC3FC010260540193700C030AB
:2001E0001500C020440080100401002106F93F003A2800F834088000CC3F00210474881080
:20020000350000113A2800F804FCFFDE150000DC3408000404600884150280DC0412800433
:200220003A880B903A8809803A880D001503C0DF150140DC000D0001440040043A880B8873
:200240003A8809803A880D00401300013A880D883A88098004014001401300013A880B9097
:200260003A8809803A880D00000D00013A8809803A880D0084004001401300013A880980D8
:200280003A880D00C4084001401300013A880D883A8809803A880B00401300013A880B900E
:2002A0003A8809803A880D00000D00013A8809803A880D00C4004001401300013A88098058
:2002C0003A880D00440B4001401300013A880D883A880B003A8809801703C0DF170280DCCE
:2002E000170140DC170000DC0404C0DE4113000104FCFFDE150000DC3408000404600884DE
:20030000150280DC041480043A880B903A8809803A880D001503C0DF150140DC000D000160
:200320003A8809803A880D003A880B00401300013A8809803A880D003A880B004400400413
:20034000401300013A880D883A880B903A880980000D00013A880B883A880980801000010B
:200360003A880B903A8809803A880D00000D00013A8809803A880D003A880B0040130001BD
:200380003A880B883A8809803A880D00401300013A880D883A8809808416400140130001C9
:2003A0003A880B903A8809803A880D00000D00013A8809803A880D003A880B00401300017D
:2003C0003A880B883A8809803A880D00401300013A880B903A8809803A880D88000D00014D
:2003E0003A880B883A8809801703C0DF170280DC170140DC170000DC0404C0DE81100001D0
:200400003408800004698810C400C0003500C01034080001046B0821440080003700C020E2
:2004200026FEBF1834088000046888104400C0003500C0103A2800F804FAFFDE1505C0DF0A
:20044000CC3F00211E0F002034080001C4008000150200D8150100D8150000D80404C0D937
:20046000C40080013A880B0004480821050480D8450400D8850400D8801E0301150380D800
:20048000061000000B00802834080001150200D83AD20610150100D8150000D80403C0D9CA
:2004A000C40080013A880B0004480821050300D84503C0D8850380D80D06A0D0801E0301F0
:2004C000150480D81705C0DF0406C0DE3A2800F804F6FFDE1509C0DF150840DC150700DC29
:2004E000CC3F00211E230020C407C00044E0BF000503C0D8450380D8C503C0D8050480D800
:2005000004FDFF0084FCBF00C4FC3F01450480D80505C0D84400800004E0FF00850300D951
:20052000850400D8C50480D8450580D88505C0D8C50580D83A88210004034004040380D8C6
:20054000340800013A880F14150200D8150100D8150000D8C4008001840040010450082128
:20056000801E0301150680D8C40000841EF37F84060A0000340800013A880F28150200D8D5
:20058000150100D8150000D8C40080018400400104500821801E0301150380D81709C0DF28
:2005A000170840DC170700DC040AC0DE3A2800F804FCFFDE150000DC340800040460088402
:2005C000150140DC04144004150280DC3A880B883A8825203A880D003A8809801503C0DFED
:2005E000000D00013A8809803A880D003A880B0040130001CC3F40913A8809803A880D00BC
:2006000040130001440080043A880D903A880B883A880980000D00013A8809803A880B0099
:20062000801000013A880B903A8809803A88231080100001CC3F80103A920410CC3F408CA9
:200640003AB044141703C0DF170280DC170140DC170000DC0404C0DE3A2800F804E9FFDE39
:20066000150E40DC340840041516C0DF151500DF1514C0DD151380DD151240DD151100DD56
:200680001510C0DC150F80DC150D00DC050300D80458488C8401800035008088C401800084
:2006A00035008088B4008001747540013408000104A8A1310400702904600821C0050001F3
:2006C00004040001005B0001CCFF3F11D4FFFF001E01C02084FE9D003A880B003A88090012
:2006E0008D03A0D0004D0001840360D1440000018043000134080005802000013A88250022
:200700003A8827003A8821003A8805003A882B00048008A534080001047808212300C02043
:200720004C00C018150BC0D8CC3F8010CC3FC0182602C0101E010018004000013408C005EE
:200740000470C8BD230080B88C00801026020010040300D980FB01013408800004708810CC
:20076000230080104C008010150C80D8CC3F40ADCC3F8015260780AD260300B0400502015E
:20078000050380DD06030000800602013A882100050300D8030380D8CC3F801026710010FF
:2007A000050300D84400400526104085260500808400800026188080C4008000263480804A
:2007C00006640000044E06043A880B800402000140F90101840360D13A8809A88D0320D415
:2007E000804300013A8821A8065A0000D4BC7801040200011704C0DC40F90101C4BCB80010
:200800003A880980840360D18D03A0D08400000480430001064F00003A880BA804070001B3
:20082000C0DF0101170400D93AC8C92480BF0201B4D211013A880B1004C02E2180310201B6
:200840003A8809983A8821103A88251080BF02013A880B803A880910807502013A8809100E
:2008600000090201044E06043AC8A180CCFF7F810402000140F90101840360D13A8809A8B5
:200880008D0320D480430001C400000406310000030580D8CC3F801026090010170400D9E3
:2008A0000B06A0D580BF02013A880B903A880910807502013A88091000090201061B000038
:2008C000030780D8CC3F8010260A0010170600D90B06A0D580BF02013A880B903A880910E5
:2008E000807502013A8809100009020184024001060C0000030980D8CC3F801026150010F6
:20090000170800D90B06A0D580BF02013A880B903A880910807502013A8809100009020100
:20092000041940013A880910C01302013AC885B0CCFF7F11040200010D06A0D040F9010151
:200940000B06A0D0840360D13A8809A88D03A0D0804300013A88090040E1010144000001F4
:2009600040E401013408C000047EC81837008018150A80D8170A80D84C008010260500101D
:20098000170BC0D8170CC0DD3A8805183A882BB806603F0034080001041040010479022182
:2009A000001C0001340800013A880B00042902210410800180EC0201170460D1452420D017
:2009C0001705A0D00300C028C400C005C41400010500C0108300C0288500C010C300C028FE
:2009E0004500C015C500C0100300C02826920219360EC02044080001264900193604C02077
:200A0000261C001804080001262A001906ED0300040B000126230319440C000126C9001942
:200A2000840800011EE70319065D000044180001265902193605C02044150001267B00197F
:200A4000841500012699001906DE03000423000126D7001944230001268D0119841800012D
:200A60001ED80319051C20D04400400504148005060902008401C0000502C0108405C000B7
:200A80004502C0104400C0008502C010C502C0150503C0104500C010340880013408000161
:200AA0003A88050004298231047C08210410C00006C60300030280284400C0002610C0108C
:200AC000261200108400C0001E12C01084018000350080883A8801003A8801003A880100FF
:200AE0003A8801003A8801003A8801003A8801003A8801003A8801003A8801000603000098
:200B0000840180003500808806200200C401800006FC3F00440080004524A0D0061B020025
:200B20000401000100170001CC3F80101EDA3F10051C20D004E07F051704E0D1031CA0D0E1
:200B40008300C0382E11C2103A8885103A8885103A8887380402C01803000019040280104A
:200B60003A888F383AB048250500001934080001150200D8150100D8150000D804018001EA
:200B80003A880B0004500821801E0301150A80D8031CA0D044008010051CA0D006E63F00D3
:200BA0000401000100170001CC3F80101EBA3F10051C20D084004005170420D1031CA0D0E0
:200BC0001705A0D18300C0202E5BC0103A8885103A8887200402C018030040190402C011FB
:200BE0003A888510CC1F402984028010050040193A8885303A88CF2134080001150200D881
:200C0000150180D8150040DD840080013A880B0004500821801E0301150A80D8031CA0D03D
:200C200044008010051CA0D006E33F000401000100170001CC3F80101E973F10051C20D059
:200C400004E07F051704E0D1031CA0D08300C0382ECEC1103A8885103A8885103A8887385A
:200C60000402C01803000019040280103A888F383AB048250500001934080001150200D8BA
:200C8000150100D8150000D8040180014400400104500821801E0301150A80D8031CA0D049
:200CA00044008010051CA0D006E63F000401000100170001CC3F80101E773F10051C20D0F6
:200CC00084004005170420D1031CA0D01705A0D18300C0202E18C0103A8885103A888720EA
:200CE0000402C018030040190402C0113A888510CC1F402984028010050040193A8885304D
:200D00003A88CF2134080001150200D8150180D8150040DD8400800144004001045008214E
:200D2000801E0301150A80D8031CA0D044008010051CA0D006E33F004400800045008030C5
:200D400006553F00C400000100170001CC3F80101E513F103A880B003A8809008043000167
:200D6000051C20D0170460D1031CA0D08300C0282E0AC0103A8887103A88851804028010C6
:200D80003A888B2844000001004D0001031CA0D044008010051CA0D006F23F004324E0D009
:200DA0001705A0D0260503180402C00006393F004302C0284303402D3A9608188302C028E0
:200DC000451C60D53A9406183AB0C620030300293AB00819C302C0283A9206183AB0C62020
:200DE000830400291523E0D01EF20220C3040029C40080011E3D80210302C0281EED0218E6
:200E0000340800013A880D000414400104600821000D00014524A0D01704A0D03408000131
:200E20003A880D0003044011046008213A882B00401300014324E0D0340800013A880D009A
:200E40003A88C5104524A0D01704A0D00460082143044011401300014324E0D03A88C51070
:200E60004524A0D0431CE0D01704A0D0C4FFFF180E0DC0A83A8845150308401134080001ED
:200E80003A880D0004600821401300014324E0D004E20401440040AD3A88C5104524A0D0FF
:200EA000C013030106EF3F003A886B15030840A944008005340800013A880DB004600821DF
:200EC000401300014324E0D004E204013A88C5104524A0D0C01303014324E0D01705A0D0D2
:200EE0001EB402184500801506EB3E00440080011EB0822103028029840000011EAD023196
:200F00001E040018151B20D0151A20D0151820D0152520D0171AE0D5044080003AC8C5158B
:200F20001519A0D00E158000CC3F40AD0E0280A8151860D5060100001518A0D01718A0D596
:200F400034080001043902213A880DB0040840293A88C9253A88ADBD00D80201151AA0D5A5
:200F6000044080001E0200A80E018005151AA0D0171AE0D03AC8C5101519A0D0171AA0D0BB
:200F8000C43FC0000E288018171BE0D13A70C4381E1000100E0100383A88CF383AD20F3896
:200FA0003408000144008001CC3FC0393A880B000440082140CE0101CC3F8010260300100D
:200FC0004324A0D0440080104524A0D04324A0D01E0F001034088000171BA0D1043982104B
:200FE00034080001150100D8150080D80440C0013A880B0004400821C0B60101CC3F801007
:20100000260300104324A0D0440080104524A0D0171BA0D0151A20D044008010151BA0D0DE
:20102000044080001519A0D0431CE0D5171860D50E0FC0AD3AC86DBD170460D1171A60D56E
:2010400034080001043902213A8849253A880DB8040840291518A0D500D802013A886BB568
:2010600004408000151A60D53AC86B15151960D51725A0D13440C0001705A0D03A888DB9EE
:201080001525A0D1364B82194324E0D0064802004302C0283A9608188302C0283A940618AC
:2010A0003AB0C620030300293AB00819C302C0283A9206183AB0C6201523E0D04303C028A9
:2010C000451CE0D08304C0281E3A0218C304C028C40000011E3B00190302C0281E350218DE
:2010E000340800013A880D000414400104600821000D00014524A0D01704A0D0340800014F
:201100003A880D0003044011046008213A882D00401300014324E0D0340800013A880D00B5
:201120003A88C5104524A0D01704A0D00460082143044011401300014324E0D034080001E7
:20114000440080013A88C51004144001046008214524A0D0000D00014324E0D03A88C510B8
:201160004524A0D0431CA0D0170560D5C4FFBF100E0880B0340800013A880B000460082107
:201180003A88ABAD80100001050880A8440080B506F43F004400C005340800013A880BB8F2
:2011A00004600821801000014324E0D03A88ABAD050880A81705A0D01EFE01184500C015D0
:2011C00006353E00440000011EFA01198303802834084005043942AD3A960C10C3038028EA
:2011E000340800010440C0013A940410044008213AB08430430480293AB08C11030480289A
:20120000150040DD3A880B003A9204103AB08C30151BA0D1C0A30101CC3F8010260300106F
:201220004324A0D0440080104524A0D01705A0D0431C20D13A880700040880100EDA0119E7
:201240003A884B1D030040294400C01844008010C5FF7F1106F93F003A8887180302C01838
:201260001E1200181705E0D03A8885103A8885103A8885188B03E0D00502001045020010A1
:201280003AD20818C502C01085020011031CA0D044008010051CA0D01704E0D0031CA0D0A5
:2012A0008300001936EC3F11063800001E33401D340800013A880D00041240010460082144
:2012C000000D0001340800013A880DA83A880B0004600821150A80D84013000134080001EA
:2012E0003A880DA80412400104600821150A80D8000D0001340800013A880B000460082177
:20130000150A80D880100001CC3F00111C2000218402400104E03F21002F020134080001D2
:201320003A880BA8046008210D03A0D080100001150A80D8170A80D80C20801026030010B5
:201340000B03A0D0440180100D03A0D0031CE0D0170420D13A88C5183A88C720170520D18A
:201360000302C0183A8885103A8885200502C010450280150B03E0D006C13F004324A0D084
:20138000440080104524A0D006C03F004400C0001705A0D006BF3D000401000100170001EB
:2013A000CC3F80101EBC3D10051C20D01704E0D0031CA0D0830000192E7B01113A88851052
:2013C0003A8885103A8885180302C0101E130018430280101E1100103A880B003A8809008D
:2013E000004D0001031CA0D01704E0D0840360D13A8885103A8885103A8885188302C0102B
:20140000C3028010440000013A9206183A8885188D03A0D080430001060300004324A0D045
:20142000440080104524A0D0031CA0D044008010051CA0D006DD3F004302C02843038029CD
:201440003A9608188302C028451CA0D13A9406183AB0C620030300293AB00819C302C028BA
:20146000030240293A9206183AB0C6201523E0D04400000126050029264E01288400C000E2
:201480001E86C028151320D1068400001E020018840280000521A0D0CC3F80311E0200303D
:2014A000840780000521A0D0440080004400C00134003E0234084001F402C0037401C002E1
:2014C0007402400534F8BD050514A0D0C4020001C4FF3F4204814829040540023A880D3887
:2014E000440180020406C007040D000334044003840080030498EB7B0400E85AC4FF6FAD97
:20150000C4FFBFB50314A0D026633D100321A0D026130011360A80208402C0001E5AC010EB
:201520001501E0D2150060D51517E0D23500002A3500802D052120D10514A0D106080000CB
:201540000405C005261AC0158407C0001E4EC010C4FFBF0035008028052120D00646000060
:20156000370080A03408C000CC0480100404C0050480C8181E03C0153500002A052160D2DA
:201580000514A0D137008018CC0480101E03C011C40280000521A0D00514E0D1370080182B
:2015A000CC0480101ED73F10052120D006D53F001516E0D71716A0D0362E80601704E0D5C4
:2015C0003A88AFB80302C0B832C007182CC03F1F4302C0B832C007183AD20718EC3F80184E
:2015E0003AB086E0830280B832C005103AD405100CC0BF103AB08418C302C0B832C0071845
:201600003AD606181700E0D53AB084181717E0D01515A0D03611C0B83A88471B3500801822
:201620001717A0D0040180101517A0D0370080A03408C000CC0280100480C81826FBBF13D3
:2016400037008018CC0280101E020010052120D01517E0D337008018060200001705A0D0D5
:20166000450080121716A0D0040180101516A0D006D03F00052160D21705A0D0051420D0C4
:2016800045008011069F3F001705A0D0052120D0051420D045008012069A3F0045000011D9
:2016A00006FD3C004302C0281523E0D026050018172220D1C4FFFF18264300198401C000C8
:2016C00006F43C00C41E60D5340800018400800504E03F07150200D8150100D8150000D883
:2016E0003A880FA8040180013A880B0004500821051FA0D5C51E20D7451F20D0851F20D046
:20170000801E0301150A80D81704A0D0051FA0D5C51E20D703028010451F20D084008005C0
:2017200026058015C400C000260FC0104400C0001E25C0104400800034080001150200D859
:20174000150100D8150000D83A880FA8040180013A880B0004500821851FA0D0801E0301AF
:20176000150A80D806180000340800013A880FA8040180013A880B0004500821150200D85F
:20178000150100D8150000D8851FA0D0801E030134080001150200D8150140DD150080DDE7
:2017A0003A880FA83A880DB03A880B0004500821150A80D8C51E20D0051FE0D5801E030122
:2017C000150A80D806780000851E20D044074005C41EA0D5C400C005831EA0D0360F80A893
:2017E0008400800134080001150200D8150180DD150080D9C41EE0D13A880B0004500821FA
:20180000C51E20D0051FE0D5801E0301150A80D8031FA0D04C00801026040010051C20D04A
:20182000C407400504E0BF0506060000831EA0D08407000144008010851EA0D0C013030189
:2018400006E53F00031CA0D0361780A80401C000051FE0D01704E0D034080001C41EE0D126
:201860003A8885188302801004018001150200D8150100D8150000D83A880B00045008215A
:20188000C51EA0D5451F20D0851FA0D0801E0301150A80D8031CA0D0851E20D04400801079
:2018A000051CA0D006E73F00851E20D0C41EA0D5C400C0058400000734080001150200D841
:2018C000150180DD150000DFC41EE0D1840080013A880B0004500821C51E20D0051FE0D513
:2018E000801E0301150A80D8031FA0D0C41E60D54C0080101E060010831EA0D08407000179
:2019000044008010851EA0D0C013030106EA3F001723E0D0C43F80001E218018851E20D003
:2019200044078005C400C005831EA0D0360F80B08400800134080001150200D8150140DD64
:20194000150080D9C41EE0D13A880B0004500821C51E20D0051FE0D5801E0301150A80D877
:20196000031FA0D00C10801026070010831EE0D0840780001E0A80184324A0D04400801025
:201980004524A0D006060000831EA0D08407000144008010851EA0D0C013030106E23F00E0
:2019A0001723A0D01522A0D04324E0D01705A0D0260200184401C00006363C004400C00072
:2019C00006343C008400C00006323C003A888B111700402935004021040180101EFBFF10A8
:2019E0001713E0D0440080001EE5BB180040000106E33B00CC3F00217AD004203A88092188
:201A00008C2A00214C1580103AB08820BAD004203A8809213A880921CC0C80100C3300211E
:201A20003AB088203AD104203A9108203AB004113A2800F8052620D13A2800F8440080005F
:201A40000526A0D0CCFFFF39261400383AD4043004FBFFDEC50380D9450380D83AD2043057
:201A60001500C0D9150200D8850380D8C4008000050380D8170580D80403C0D904018001AB
:201A8000150180D81504C0DF801E03013A8805001704C0DF0405C0DE3A2800F83A88050035
:201AA0003A2800F804F5FFDE150940DD150800DD1507C0DC150680DC150400DC150AC0DFDF
:201AC000150540DC3A8825203A88272844C4090484010005440140058403C0D944008001AA
:201AE0003A880B983A880990150200D8150100D8150000D8850300DD801E0301040380D8F6
:201B000084004004150200D8150180D8150040DC8403C0D9440080013A880B983A880990CA
:201B2000C4FF3F84850340DD801E030126050080030380D8CC0080101EE77F143A88050014
:201B40000601000044008000170AC0DF170940DD170800DD1707C0DC170680DC170540DC56
:201B6000170400DC040BC0DE3A2800F804F2FFDE150C00DF440000071507C0DC150DC0DFD0
:201B8000150BC0DD150A80DD150940DD150800DD150680DC150540DC150400DC052620D713
:201BA000CCFFFF3C1E0200983A88050006410000CC3FC0391E3E00383A922030170E00DDA3
:201BC0003AD226983A8825283A8823203A8839003AC821858400400544008005C400C00569
:201BE000CCFFFF983A8805A4263100183AD406103AD20410C50300D84503C0D8850380D805
:201C0000170F80D8261000100726A0D00503C0DD1E0600103A880B903A88098840AA0101EE
:201C20003A883910CC3F801026DF3F1004408000150200D8150100DD150080D80403C0D9F7
:201C400004018001061400003A880B903A880988050340DD40AA01013A883910CC3F80107D
:201C60001E1300100403C0D904018001150280DD150100D8150000D83A880B903A880988FE
:201C8000801E03013A880FA0150200D8150100D8150000D8044080013A880B903A880988F2
:201CA000801E0301044000A5C4FFFF9C06CC3F003A8805E0170DC0DF170C00DF170BC0DDFF
:201CC000170A80DD170940DD170800DD1707C0DC170680DC170540DC170400DC040EC0DE3B
:201CE0003A2800F804F5FFDE150500DC3A8821301508C0DC840180003A882738150200D8DD
:201D0000150100D8150000D80403C0D944008001CC3F0084150780DC150640DC150AC0DF87
:201D2000150900DD3A8823203A882528050380D8801E0301260D008004088000150200D864
:201D4000150100D8150000D80403C0D9040180013A880B903A880988050380D84503C0DC8E
:201D6000850300D8C50300D8801E030144018000B40B0004050380D844B031844400C00428
:201D8000040400DD150200D8150100DD1500C0DC0403C0D9440080013A880B903A880988B6
:201DA000C4FF3F84801E0301260500800304C0D84C00C0183A8805181EF23F180601000040
:201DC00044008000170AC0DF170900DD1708C0DC170780DC170640DC170500DC040BC0DE6F
:201DE0003A2800F83408800004008810CC3F00213A888920230080203A2800F834088000C1
:201E000004008810CC3F00213A888920250040213A2800F8CC3F00214326A0D02602002062
:201E200054008010060100008C3F80104526A0D04326E0D034088000040088102500C0101B
:201E40003A2800F8CC3F00214326A0D0260200201404801006010000CC3B80104526A0D0BA
:201E60004326E0D034088000040088102500C0103A2800F804FDFFDE150000DC3A882120D0
:201E80003A8809001502C0DF150140DC40E40101CC3F8080BA9106104326A0D0CC0F8010B9
:201EA0003AB084183408C0004526A0D00400C81825008018440040043A88098840E1010126
:201EC000260A00803A880900C4FF3F8440E101013606008C3A8809881702C0DF170140DCD7
:201EE000170000DC0403C0DE41E401011702C0DF170140DC170000DC0403C0DE3A2800F845
:201F00004326A0D03408C0000400C81814088010250080183A2800F88400800036010011F9
:201F200041E701013A2800F834084001CC3F8020040048293A88451123008010CC3F801119
:201F400044008020CC3F80103A884511230080108400C020CC3FC018CC3F80103A88471933
:201F60002300C018CC3FC0183A9406183A920410C4000021CC3F00213AB0C4103AB0841169
:201F80003A8849212300C0203A9606183AB084183A2800F83408800004088810250040116E
:201FA000CCFF7F293AD20A283408800044088810250040113A2800F804FDFFDE150000DC31
:201FC0003A8821203A8809001502C0DF150140DC40E40101440040043A88098840E1010127
:201FE0000401000180F20101150180800403000180F20101150380800405000180F201013F
:202000001505808034088000440088102300C010CC3FC018CC3F80183A70461C0502C08042
:202020003AD84614BAD004103A70461C0504C0803A7044140506808000F001010500408479
:202040001702C0DF170140DC170000DC0403C0DE3A2800F83408800004078810250000100E
:202060004400000141E7010104FFFFDE3A8809001500C0DF40E7010134088000040788100A
:20208000250000101700C0DF0401C0DE3A2800F82CE0DF20FAD5061804FFFFDE1500C0DFCC
:2020A00044E0FF18161400204400400184078000160DC0101619001834208000C4FFBF106B
:2020C0003A70081184058000342000210E0CC01044FAFF183A98C820002F02011700C0DFDE
:2020E0000401C0DE3A2800F880B802011700C0DF0401C0DE3A2800F8C4FF7F0106EB3F0082
:20210000341080013AD8CD30C40580003AC8C7103A8809313AD8C82006EF3F00C4FFBF001D
:202120001E0480183A8805281700C0DF0401C0DE3A2800F83A88050006E83F00161B0020FE
:202140003A880F00161600283A880D202E1A0029040880004400C00006010000260D001020
:202160003A884B29C4FFBF103A88C71836FB3F293A880500260700183A88050036024031E1
:202180003AC84D313AB0C4107AD006187AD00A281EFA3F18260100383AC885003A2800F86E
:2021A0003AC84B015C00C03906E73F003AC809014400C00106E33F004400C00006EE3F00E0
:2021C000161700203A880F003A880520161200282E160029040880014400C00006010000A5
:2021E000260A00303A884B29C4FFBF313A88C71836FB3F29260500187AD006183601401129
:202200003AC845117AD00A281EFB3F18260100383AC885003A2800F83AC84B0106EC3F00BB
:202220003AC809014400C00106E73F004400C00006F13F003A880D202E150029161400287A
:20224000040880004400C00006020000260E0010160500283A884B29C4FFBF103A88C718F6
:2022600036FA3F29260800183A880500360240313AC84D313AB0C4107AD006187AD00A28EE
:202280001EFA3F183A2800F83A8805003A2800F84400C00006F43F003A8805202E120029C7
:2022A00016110028040880014400C00006020000260C0030160500283A884B29C4FFBF31A8
:2022C0003A88C71836FA3F29260600187AD00618360140113AC845117AD00A281EFB3F184D
:2022E0003A2800F83A2800F84400C00006F73F003A880500260700204C00C0207AD0082038
:20230000260100183A8845113A884B291EFA3F203A2800F83A2800F804F5FFDEFAD50C2034
:202320001504C0DCFAD726203420C000150780DD150500DD150380DCC4FFFF18150AC0DF41
:20234000150900DF1508C0DD150640DD150240DC150100DCCC3F00353A702419CC3F809D1A
:20236000265200A0C43F8000262E80A034200091FA90242044E03FA53A8821003A882F00BF
:20238000FAD50C28FAD72A283420C000C4FFFF18CC3F80313A706219CC3F00AF264A0030EE
:2023A000C43F80002645803034204089FA90222844E0BF313A880B003AB0202CBA9020808D
:2023C0003404800004F988103A88A180170000813AF0469D3A880F18CC3F80183AC88DA16C
:2023E0003A680020C82510004C241000BC25100038241000BC25100094251000BC25100096
:20240000382410004C2410004C2410009425100038241000A8261000A8261000A826100081
:202420005C2610001E580090040200048400C00506D33F003A8823003A882DE03A882F28CC
:20244000840080001E8F80B83A8805B04C00C011C4FF3F013A880D00CC3F0021FA9508204A
:20246000CC3F80383420C000FA970410C4FFFF183A70C6303AB006193AB08418170AC0DF17
:20248000170900DF1708C0DD170780DD170640DD170500DD1704C0DC170380DC170240DC71
:2024A000170100DC040BC0DE3A2800F81E2B0090040100044400C00506B13F001E25008875
:2024C00084004001060200001E1A0088440040013AB06081BA9020803404C000043DC9181B
:2024E0003A88E1801700C0803AF0449D3AC88DA13A6800184C2410004C241000982610009F
:2025000034241000982610009425100098261000342410004C2410004C24100094251000BD
:2025200034241000A8261000A8261000A8261000C02610003A880988C0D10201C4FEFF10EB
:20254000841D80103A98E2883AC88D003A880B0006993F00C400400106973F003A88099098
:20256000150040D9C0D10201C4FEFF10841D80113A98E4903AC8A9013A8821003A882F00D0
:20258000170040D9067E3F0004030004C400C005067B3F00342080013A880F00C4FFBF319B
:2025A000C4FF3F0106AC3F00440040013AC80929C406C0000E4B00193A704E113A8809009E
:2025C0003A880D0006A43F007A9106907A9122882E37401CC4FFBF31C40600013A880B00E1
:2025E0003A880F183A884B293A88C718160100383602401C3AC8471C54004029C4FF3F21F3
:202600001EF73F203AC006183AB06219C41F00310EE53F01CC01C08826040018CC03C08814
:2026200004014001260140193A8863892C00C288260400183400FE00C4FFFF18042000310D
:202640003A70E288843FC00016803F19BA910C884C00C0117AD20C30067F3F002C10809061
:20266000260200102C108088261800103420800034108091C4FFBF103A880F983A708C3006
:2026800006C73F00C4008000262D80B84400C0003A8805B01EDDFFB84C00C0113A8809004A
:2026A0003A880D00066C3F003A88239006643F003AC8471C840600014400400106C83F00FA
:2026C0002C10809026E93F103A8823003420800034108089C4FFBF103A880FA83A708C30D9
:2026E00006AF3F000408C0013AC80F393A98CE893AD80A893AC00E383AB0CA29CC01C0282F
:2027000026040018CC03C02804010001260100193A880B292C00C128260400184C00C01110
:20272000440000013A880D00064B3F00BA910A284C00C0113A8809007AD20C2806463F0085
:202740003420800034108089C4FFBF103A880FB03A708C3006923F0004F5FFDE150100DC40
:20276000FAD52020150640DDFAD72A20150380DC34208004150900DF150500DDC4FFBF94A1
:20278000150AC0DF1508C0DD150780DD1504C0DC150240DCCC3F00843A7024913A8829A8DF
:2027A000CC3F00AF26540080C43F8000262F808034200091FA90242044E03F843A8823000E
:2027C0003A882F00FAD50428FAD72C2834200001C4FF3F21CC3F80103A706621CC3F80B168
:2027E000264C0010C43FC0002647C01034200099FA90262044E0BF103A8807003A88A180FB
:20280000C40300013AB0441C3AF06AB54400C081366B8020BA90041034040001040B0A21C6
:202820003A880511170080103A680010C029100080281000802810007C281000A42910006D
:20284000A4291000902910007C281000A429100090291000A42910007C281000B0291000FE
:20286000B0291000B0291000C02A10001E3B0090040240048400C00506D23F003A882B30DC
:202880008400800026268018C400800026B88018440080001EAF80183A8829A83A88070011
:2028A0003A880900CC3F8018FA950610CC3F80A0FA970A1034208000C4FFBF103A7084207B
:2028C0003AB0C4103AB04411170AC0DF170900DF1708C0DD170780DD170640DD170500DDD2
:2028E0001704C0DC170380DC170240DC170100DC040BC0DE3A2800F81E0D00900401400477
:202900004400C00506AF3F003AC006988400C01806BA3F001E1400984400C00006B73F00FD
:202920003A8829A8C4FFFF003A88090006DD3F003A880990150040D9C0D10201C4FEFF1067
:20294000841D80103A98E4903AC8A1003A8823003A882F00170040D9069A3F00040340042D
:20296000C400C00506973F003A880998150080D9C0D10201C4FEFF10841D80103A98E6983B
:202980003AC885003A880700170080D9069B3F00342000013A882900C4FF3F21C4FFFF0072
:2029A00006C03F003A8827903A8807B806B43F003A8827903A882BE03A8807B806B03F0063
:2029C0003AD428903AD42C98CCFFBF94CCFFFF9C3A880B983A8809901500C0D9002F02013B
:2029E0003A880BA03A8809983A882310002F02013A8809A03A880BB03A882710002F0201CD
:202A00003A880BB03A8809903A882910002F02013AD406883A88C5141700C0D93A8885186B
:202A20002E02C0147400C0003A88E9A03A942610CCFF7F8C3AD404103A88639CBA9126885D
:202A40003A880515BAD62288BA9108103AC026983AB0629C3AB026892C0082982604001044
:202A60007AD004984C0000993A8821383AB02611C41FC0800E21C000CC018098260400101E
:202A8000CC03809804010001260100113A8827992C008298260400103400BE00C4FFBF108B
:202AA0000420C0803A70A698843F8000169CFF10BA9108983A8829A87AD2082006793F0016
:202AC0002C108090260800102C1080981E0600103420800034100099C4FFBF103A8829B006
:202AE0003A70882006AD3F003420800034100091C4FFBF103A70882006A83F004400800054
:202B00003AC8C710C40680001663FF10040880003AC8C5103A9884983AD8C6983AC004103B
:202B20003AB08418CC01C01026040018CC03C01004010001260100193A8805112C00C11076
:202B4000260600183A8829A84400C0003A88090006543F003A88213806C53F00BA910410B2
:202B60003A8829A83A8807007AD20810064D3F003420800034100099C4FFBF103A8829A82D
:202B80003A70882006853F00FAD50A203420C000C4FFFF18CC3F4029841F80003A700619D2
:202BA000FAD708200E0E40114427800016084011442580003420C0180E0B401184DABF2891
:202BC0003A988418260700203AC885003A2800F83400A000C4FFBF103A8885203A2800F832
:202BE0003A8805003A2800F8842580003AC845113AD8841806F33F0004FDFFDE1502C0DFB9
:202C0000150140DC150000DC263500203A882120FAD72220163600203A880980C0D10201B5
:202C20008427C0003AC88718842500011614C0203AC8C9203A98208134208000C4FFBF1010
:202C40003A8809883A70A080CC3F8018FA950610CC3F8020FA97081034208000C4FFBF1055
:202C60003A7084803AB0C4103AB004111702C0DF170140DC170000DC0403C0DE3A2800F80B
:202C800044260001161CC0203AC8C9203A98208134003F01C4FF3F21CC0140813A70088101
:202CA00026040028CC03008404014001260140813A8849212C00412126050028C427C00089
:202CC0003AC887183400BF00C4FFBF103A708820BA9120203A8809887AD2208006DA3F0093
:202CE0003A8809003A8807003A88210006D63F003AC8210106C83F00442E00013AC8C920B3
:202D0000440140013A9808813AC88B283AD860813AC008203AB0208106DD3F00D4FFBF00C9
:202D200036050011C43F8000360F0011040880003A8807000605000034408000C4FFBF1088
:202D40002E0C0011040280000406C0003AD8C8203408C0000400C0183A8809190300C0203F
:202D60003AC8C5103A2800F8040680000402C00006F63F00040480003A88071006F33F00FE
:202D800004FDFFDE1502C0DF150140DC150000DCC403C0003A8805202E4580193AB00629E9
:202DA000CC00C0181E44001804FC7F343AD122880401C028040140233A9120880402002B94
:202DC0000402C022040500840403802A040340223A88212C3A8811283A880F201700004111
:202DE0001700C01F1700C06315000039170080531500C06F1500C05B1500804B0404C01837
:202E00000404C039040400420404406B040400630404C05A040480520404404A1EEF3F1C53
:202E20004400C0893A910E38CC030031C400C0023A88C7113A88CB292E2100593A88131889
:202E40003A8811283A880F20170080420401404A04FFFF3915FFBF4A0401004236FAFF59F7
:202E600004FF3F21BAD00820CC008031440000213A8809213A8809213A8807193A880B29AB
:202E8000260600303A888D190300C0294400C01844004029C5FFFF191EFBBF191702C0DF34
:202EA000170140DC170000DC0403C0DE3A2800F83A88072006F23F003A88072006F13F00AD
:202EC0003A880D2006EE3F00CC00C0203A88052026440018C4FFFF31264000303A88132835
:202EE0003A880D203A88072006040000C4FF3F3A44008031263900383A880F404400C018FB
:202F000005004032CC00001A1EF83F40C40000012E2DC021CC3F00293A920C203AB008316F
:202F20003A940C203AB08C21C40300012E18C02104FC3F3B3AD118600401001A0402C01A15
:202F40003A9108600403801A3A881318040500213A88091915008049150080411500805900
:202F600015008051040400420404404A0404C05A040480521EF73F41440000633A91186014
:202F8000CC03C039C40000013A88071B2E0EC0213A8813183A881138C40000011500804908
:202FA00004FF3F420401404A36FC3F2204FF3F39BAD00820CC00C039440000213A88092128
:202FC0003A8809213A880719260500383A88CF19050040194400C0181EFDFF383A2800F8F0
:202FE0003A2800F83A8807203A880F3006C73F0004FCFFDE150300DF040300DF15FD3FE195
:2030000015FE7FE115FFBFE117FEFFE017FDBFE0260C80180608000017FEBFE00401C01081
:2030200015FEFFE017FDFFE00401001915FD3FE11700C0181500C01017FEFFE017FFBFE0DE
:203040001EF5BF183A8801003A8837E0170000DF0401C0DE3A2800F804FEFFDE1501C0DF63
:20306000150000DF3A8839D8340880010411823134084001044B40293404000104C413219A
:2030800000FF020134048001040880313404400104084029340400010408002100FF020162
:2030A00034088001044B80313408400104004029340400010479132100FF0201805B04019D
:2030C000008604013A8801003A8837E01701C0DF170000DF0402C0DE3A2800F804FDFFDE40
:2030E0001502C0DF150100DF040100DF3A880900C01603013A880100401A0301406E0401C8
:203100003404000104D11121809B04011727A0D01728E0D0172920D13A880D203A880B18AD
:203120003A880910C065000115FFBFE044000001804B040117FF3FE1C09C040104FDFFDE51
:203140001502C0DF150100DF040100DF15FF3FE117FF3FE1403204013A8837E01701C0DF6F
:20316000170000DF0402C0DE3A2800F804FDFFDE1502C0DF150100DF040100DF15FF3FE1BA
:2031800040900401440080003A7001103A8801003A8837E01701C0DF170000DF0402C0DEEE
:2031A0003A2800F804FEFFDE1501C0DF150000DF3A8839D83A8801003A8801003A88010011
:2031C0003A88010034080001044B002180C903013A8801003A8837E01701C0DF170000DFE9
:2031E0000402C0DE3A2800F804F4FFDE150B00DF040B00DF15FC3FE115FD7FE115FEBFE1B9
:2032000015FFFFE117FFFFE017FEBFE03A88851815F8BFE01702C0E0170180E03A88851876
:2032200015F9BFE0170180E015F5BFE017FEBFE015F6BFE04400800015F7BFE017FCBFE041
:20324000040580103A8809104400C00017FDBFE03A98841835008020170380E08C0080106A
:203260001E05001017FCBFE0040380103A880710040081003500801817FCBFE0370080102E
:2032800017FCBFE0040280103700801015FABFE017FABFE00C1080102602001017F7BFE030
:2032A0001E03001017FABFE00C20801026F43F1017FABFE00C108010261E001017F7BFE0AB
:2032C0000E1C800017F7BFE0C4FFBF1015F7BFE017FFFFE017F8BFE02E0A801817FCBFE035
:2032E000040180103A88091017FFBFE04400C01015FFFFE003008010CC3F8010350080209F
:20330000060C000017F5BFE02608001017F5BFE0C4FFBF1015F5BFE017FCBFE00401801085
:203320003A8807003500C010060200000400BF0015F7BFE017FABFE00C20801026D03F1098
:2033400017FCBFE03700801015FBBFE017F6BFE02604001017F6BFE0C4FFBF1015F6BFE077
:2033600006050000170280E04400C0101502C0E017FBFFE00500C01017F7BFE044008010B7
:2033800015F7BFE017F6BFE01EBD3F101702C0E017F9BFE01EBABF1817FCBFE0040280104D
:2033A0003700801015FABFE017FABFE00C08801026F93F10170380E04C0080101E0400104E
:2033C00017FCBFE0040380103A8807003500C010170180E03A8837E0170000DF0401C0DEEC
:2033E0003A2800F804FDFFDE1502C0DF150100DF040100DF15FF3FE1040F60D117FF3FE158
:20340000006404013A8837E01701C0DF170000DF0402C0DE3A2800F804F7FFDE1508C0DF2B
:20342000150700DF040700DF15FC3FE115FD7FE115FEBFE115FFFFE115F93FE017FCBFE07E
:2034400015FABFE017FABFE0170B801017FDFFE00E06801817FDFFE017FFBFE03A888518B6
:2034600017FAFFE0170BC0180E02801884FCBF000617000017FABFE0170AC01017FDBFE00A
:203480003A88851817FFFFE03A880D183A880B1017FE3FE100D8020117FABFE0172F80107E
:2034A000260A001017FABFE0172F8010370080100C01801015FBBFE017FBBFE020018010D1
:2034C0001E020010C4FEBF0015F9BFE017F9BFE03A8837E01701C0DF170000DF0402C0DEB5
:2034E0003A2800F804FAFFDE150500DF040500DF15FD3FE115FE7FE115FFBFE115FB3FE02E
:2035000017FDBFE015FCBFE017FFBFE02604001017FCBFE0170CC01017FFBFE01500C0101A
:2035200017FCBFE0170C80101E03001004FDBF0015FBBFE0060D000017FCBFE0170C80100E
:20354000500280101E03001084FCBF0015FBBFE00606000017FEBFE02604001017FCBFE0BE
:20356000040DC01017FEBFE01500C01017FBBFE03A8837E0170000DF0401C0DE3A2800F854
:2035800004F9FFDE1506C0DF150500DF040500DF15FE3FE115FF7FE115FB3FE017FEBFE02C
:2035A00015FCBFE017FCBFE0170B801017FFFFE01602801884FCBF000646000017FCBFE015
:2035C000172F80102603001017FCBFE0172E80102602001044FBBF00063E000017FCBFE029
:2035E000173F8010C4FFFF1017FFBFE03A7084182602001084FABF000636000017FC3FE134
:203600004017040115FBBFE017FBBFE02602001017FBBFE0062F000017FCBFE0172F801048
:203620000401C01017FCBFE0172F801004018010370080102C003C1134208000C4FFBF10F2
:203640003AB084203500801817FFBFE00E010010C4008010BAD0051015FDBFE017FCBFE0E5
:20366000172F80100401801017FCFFE0172FC0180401C0183700C0182C003C1917FDFFE06F
:20368000341CC0183AB0C6203500C01017FC3FE14017040115FBBFE017FC3FE14020040157
:2036A00015FBBFE017FCBFE0172F80100401C01017FCBFE0172F8010040180103700001199
:2036C00034008400C4FFBF103AB084203500801817FBBFE03A8837E01701C0DF170000DF0E
:2036E0000402C0DE3A2800F804F2FFDE150DC0DF150C00DF040C00DF15FC3FE115FD7FE1A6
:2037000015FEBFE115FFFFE115F43FE017FCBFE015F8BFE015F53FE017FEBFE015F6BFE0F5
:2037200017F8BFE0170B801017FDFFE00E0A801817F8BFE0170B801017FEFFE00E06801886
:2037400017F8BFE0170BC01017FEBFE03AC88718170280E00E02801884FCBF00069300007B
:2037600017F8BFE0172F80102603001017F8BFE0172E80102602001044FBBF00068B000042
:2037800017F83FE14017040115F4BFE017F4BFE02602001017F4BFE00684000017F8BFE032
:2037A000172F80100401C01017F8BFE0172F801004018010370080102C003C113420800031
:2037C000C4FFBF103AB084203500801806650000C4FFBF0015FBBFE017F6BFE0CC00801058
:2037E0001E1E001017F6BFE00401C01004FFBF003A70841815F7BFE017F7FFE017F6BFE0B0
:203800003AC885181702C0E00E0180183A88051815F9BFE017F5BFE017FFFFE03A8887181C
:2038200017F93FE104FBBFE03A880D203A880B183A88091000D8020117F5FFE017F9BFE096
:203840003A88851815F5BFE01702C0E017F9BFE03AC88518150280E00630000017F6BFE000
:20386000CC00801015FABFE017F6FFE017FABFE03AC8851815F6BFE017F6BFE00401C010D8
:2038800004FFBF003A70841815F7BFE017F7FFE017F6BFE03AC889181702C0E017FABFE0D0
:2038A0003A8887183A8805200E0180183A88051815F9BFE004FBFFE017FABFE03A888518A0
:2038C0003A880F1017F5BFE017FFFFE03A88891817F9FFE017FABFE03AC885183A880D10E7
:2038E0003A880B203A88093800D8020117F9FFE017FABFE03AC8851817F5FFE03A88851875
:2039000015F5BFE017F9FFE017FABFE03AC885181702C0E03AC88518150280E017F8BFE043
:20392000170AC01017F6BFE03A88851817FBFFE03500C01017F83FE14017040115F4BFE062
:2039400017F4BFE01E0A001017F83FE14029040115F4BFE017F4BFE01E07001017F7BFE0B4
:2039600015F6BFE0170280E01E993F10060300003A880100060100003A88010017F8BFE0DA
:20398000172F80100401C01017F8BFE0172F8010040180103700001134008400C4FFBF10D1
:2039A0003AB084203500801817F4BFE03A8837E01701C0DF170000DF0402C0DE3A2800F87E
:2039C00004F1FFDE150EC0DF150D00DF040D00DF15FC3FE115FD7FE115FEBFE115FFFFE118
:2039E00015F43FE017FFBFE015F8BFE017FDBFE015F9BFE017FCBFE015FABFE017FABFE0CE
:203A0000170B801017FDFFE00E06801817FABFE0170BC01017FDBFE03AC8871817FFBFE0AA
:203A20000E02801884FCBF000696000015F53FE00687000017FAFFE017F5BFE03A910410D3
:203A40003A888518040D80101700801017FDFFE0167C801817FAFFE017F5BFE03A91041028
:203A60003A888518040D80101700C01017FA3FE117F5BFE03A9104103A888520040E80109B
:203A8000170080103A88851817FDFFE00E6D801817FAFFE017F5BFE03A9104103A88851841
:203AA000040D80101700801015F7BFE015F63FE0065C000017FDFFE017F7BFE0164D8018EC
:203AC00017FAFFE017F5BFE0040180103A9104103A8885181700C01017F7BFE03A88851885
:203AE00017FDFFE00E43801817FAFFE017F5BFE0040180103A9104103A8885181700C01095
:203B000017F7BFE03A88871817FDBFE03AC8851815FBBFE017FBFFE017FFBFE00E01801849
:203B20003A88051815FBBFE017FABFE0170AC01017FDBFE03A88851817FBFFE03A880D186C
:203B40003A880B1017FE3FE140A004012613001017FABFE01708801017FAFFE017F77FE168
:203B60003A8809183AE83E1015F4BFE017F4BFE01E0A001017FABFE01709801017FA3FE1D7
:203B800017FBFFE01500C0D817FEFFE117FDBFE117F77FE13AE83E1015F4BFE017FFFFE063
:203BA00017FBBFE0262E801817F4BFE01E2C001017FFFFE017FBBFE03AC8851815FFBFE06C
:203BC00017FAFFE017F5BFE0040180103A9104103A8885181700C01017F7BFE03A88851884
:203BE00015FDBFE017FBBFE017FEFFE03A88851815FEBFE017FAFFE017F5BFE0040180102E
:203C00003A9104103A8885181700801017F7FFE03A88851815F7BFE017F6BFE04400801048
:203C200015F6BFE017FAFFE017F5BFE03A9104103A888518040F80101700801017F6FFE0CB
:203C4000169CBF1817F5BFE04400801015F5BFE017FABFE0170C801017F5FFE01675BF1803
:203C600017FABFE0170AC01017F9BFE03A88851817F8FFE03A880B183A8809100059040189
:203C800017F4BFE03A8837E01701C0DF170000DF0402C0DE3A2800F804F5FFDE150AC0DF62
:203CA000150900DF150800DC040900DF15FE3FE115F83FE015F93FE015FA3FE015FB3FE039
:203CC00015FC3FE015F73FE017FEBFE0040D801015FDBFE017FEBFE0172F801026190010AA
:203CE00017FEBFE0172F8010370080100C08801015F8BFE017FEBFE0172F801037008010D2
:203D00000C10801015F9BFE017FEBFE0172F8010370080100C20801015FABFE017FEBFE0DB
:203D2000172F8010370080100C40801015FBBFE017FEBFE0172F8010370080100C808010EE
:203D400015FCBFE017FEBFE017308010580080101E2F001017F8BFE0200880101E2C001023
:203D600017F7BFE03A91041017FDFFE03A88851817FEFFE01731C0181500C01017F7BFE0BF
:203D80003A91041017FDFFE03A88851817FEFFE01732001917FEFFE01731C0183AC8C7209F
:203DA0004400C0181501C01017F7BFE03A91041017FDFFE03A88A11817FEFFE017F7BFE066
:203DC0003A9104103A888518040E80101700C01017FEBFE0173F80103A880B103A880918C2
:203DE000C01302011502808017F7BFE03A91041017FDFFE03A88851817FEFFE0173FC018D6
:203E00001503C01017F7BFE04400801015F7BFE017FEBFE017338010580080101E2F0010BB
:203E200017F9BFE0201080101E2C001017F7BFE03A91041017FDFFE03A88851817FEFFE0E7
:203E40001734C0181500C01017F7BFE03A91041017FDFFE03A88851817FEFFE01735001923
:203E600017FEFFE01734C0183AC8C7204400C0181501C01017F7BFE03A91041017FDFFE0C1
:203E80003A88A11817FEFFE017F7BFE03A9104103A888518040E80101700C01017FEBFE08B
:203EA000173F80103A880B103A880918C01302011502808017F7BFE03A91041017FDFFE0F0
:203EC0003A88851817FEFFE0173FC0181503C01017F7BFE04400801015F7BFE017FEBFE099
:203EE00017368010580080101E2F001017FABFE0202080101E2C001017F7BFE03A9104103A
:203F000017FDFFE03A88851817FEFFE01737C0181500C01017F7BFE03A91041017FDFFE0D1
:203F20003A88851817FEFFE01738001917FEFFE01737C0183AC8C7204400C0181501C010C1
:203F400017F7BFE03A91041017FDFFE03A88A11817FEFFE017F7BFE03A9104103A88851888
:203F6000040E80101700C01017FEBFE0173F80103A880B103A880918C01302011502808071
:203F800017F7BFE03A91041017FDFFE03A88851817FEFFE0173FC0181503C01017F7BFE08C
:203FA0004400801015F7BFE017FEBFE017398010580080101E2F001017FBBFE02040801008
:203FC0001E2C001017F7BFE03A91041017FDFFE03A88851817FEFFE0173AC0181500C010A7
:203FE00017F7BFE03A91041017FDFFE03A88851817FEFFE0173B001917FEFFE0173AC01867
:204000003AC8C7204400C0181501C01017F7BFE03A91041017FDFFE03A88A11817FEFFE0C7
:2040200017F7BFE03A9104103A888518040E80101700C01017FEBFE0173F80103A880B1095
:204040003A880918C01302011502808017F7BFE03A91041017FDFFE03A88851817FEFFE0BE
:20406000173FC0181503C01017F7BFE04400801015F7BFE017FEBFE0173C8010580080107F
:204080001E2F001017FCBFE0208080101E2C001017F7BFE03A91041017FDFFE03A888518A9
:2040A00017FEFFE0173DC0181500C01017F7BFE03A91041017FDFFE03A88851817FEFFE029
:2040C000173E001917FEFFE0173DC0183AC8C7204400C0181501C01017F7BFE03A910410DB
:2040E00017FDFFE03A88A11817FEFFE017F7BFE03A9104103A888518040E80101700C010EA
:2041000017FEBFE0173F80103A880B103A880918C01302011502808017F7BFE03A910410CC
:2041200017FDFFE03A88851817FEFFE0173FC0181503C01017F7BFE04400801015F7BFE0F7
:2041400017FEBFE017F7FFE0150CC01017FEBFE03A880910403E03013A88010004FFFFE611
:204160001702C0DF170100DF170000DC0403C0DE3A2800F804FAFFDE1505C0DF150400DF12
:20418000040400DF15FF3FE115FC3FE0F40280000498AB1015FEBFE0F40280000498AB1088
:2041A00015FDBFE0060C0000440000014032040117FEBFE02608001017FDBFE0C4FFBF1049
:2041C00015FDBFE017FDBFE01E03001004E3BF0015FCBFE00605000017FFBFE0172F80105E
:2041E00037008010CC0080101EEF3F1017FCBFE03A8837E01701C0DF170000DF0402C0DE64
:204200003A2800F804FAFFDE1505C0DF150400DF040400DF15FF3FE115FC3FE0F4028000F7
:204220000498AB1015FEBFE0F40280000498AB1015FDBFE0060C0000440000014032040129
:2042400017FEBFE02608001017FDBFE0C4FFBF1015FDBFE017FDBFE01E03001004E3BF00EC
:2042600015FCBFE00605000017FFBFE0172F8010370080100C04801026EF3F1017FCBFE07B
:204280003A8837E01701C0DF170000DF0402C0DE3A2800F804FAFFDE1505C0DF150400DF0E
:2042A000040400DF15FF3FE115FC3FE0F40280000498AB1015FEBFE0F40280000498AB1067
:2042C00015FDBFE0060C0000440000014032040117FEBFE02608001017FDBFE0C4FFBF1028
:2042E00015FDBFE017FDBFE01E03001004E3BF0015FCBFE00605000017FFBFE0172F80103D
:20430000370080100C02801026EF3F1017FCBFE03A8837E01701C0DF170000DF0402C0DEF8
:204320003A2800F804FAFFDE1505C0DF150400DF040400DF15FF3FE14402800015FDBFE005
:20434000F40340010490502917FD3FE1002F02013A880B1074750001040030214023020130
:204360003A880B1034002001C4FF3F21402302013A880B1017FF3FE14023020115FEBFE057
:2043800017FEBFE0262A001015FC3FE0061700003400A000C4FFBF10C4FFBF101EFE3F1059
:2043A000F40340010490502917FD3FE1002F02013A880B10747500010400302140230201D0
:2043C0003A880B1034002001C4FF3F21402302013A88071017FFBFE03AC8C51015FFBFE00A
:2043E00017FCBFE04400801015FCBFE017FCFFE017FEBFE016E6BF18F403400104905029C9
:2044000017FD3FE1002F02013A880B1074750001040030214023020117FF7FE13A88091063
:20442000002F0201C4FFBF101EFE3F10060D0000F40340010490502917FD3FE1002F02018F
:204440003A880B1074750001040030214023020117FF7FE13A880910002F0201C4FFBF10C5
:2044600016FEBF003A8805003A8837E01701C0DF170000DF0402C0DE3A2800F804FEFFDE3F
:204480001501C0DF150000DF3A8839D8170EA0D026030010170EA0D03AE83E1006010000C6
:2044A000042AA0D03A8837E01701C0DF170000DF0402C0DE3A2800F804FBFFDE1504C0DF46
:2044C000150300DF040300DF15FF3FE117FFBFE0160800100403400117FF3FE1002F020138
:2044E0003A88071034088000049580103A888518060100003A88050015FDBFE017FDBFE06D
:204500002619001017FDBFE017008010170480102606001017FDBFE0170080101704801006
:2045200017FD3FE13AE83E10060100003A88050015FEBFE017FF3FE10088040117FEBFE0E0
:204540000E070010C04704013A88071017FEBFE03AC8850015008018C4FFBF0006070000DA
:204560003A88050006050000C04704013A8807104414800015008018C4FFBF003A8837E0A4
:204580001701C0DF170000DF0402C0DE3A2800F804FDFFDE150200DF040200DF15FE3FE184
:2045A00015FF7FE13A8801003A8837E0170000DF0401C0DE3A2800F804FFFFDE150000DF24
:2045C0003A8839D83A8801003A8837E0170000DF0401C0DE3A2800F804FCFFDE150300DFA5
:2045E000040300DF15FD3FE115FE7FE115FFBFE117FFBFE03A8837E0170000DF0401C0DE55
:204600003A2800F804FEFFDE1501C0DF150000DF3A8839D8170EA0D026030010170EA0D082
:204620003AE83E1006010000042AA0D03A8837E01701C0DF170000DF0402C0DE3A2800F8E1
:2046400004FAFFDE1505C0DF150400DF040400DF15FE3FE115FF7FE117FEBFE02603001053
:2046600017FEBFE0170280101E060010406004013A880710840580001500801884FABF0038
:204680000613000017FEBFE017FFFFE015FCFFE015FDBFE017FDBFE017FCFFE01501C0102C
:2046A00017FCBFE01700C01017FDBFE01500C01017FCBFE01700801017FDFFE01501C01097
:2046C00017FCBFE017FDFFE01500C0103A8805003A8837E01701C0DF170000DF0402C0DE5F
:2046E0003A2800F804FDFFDE1502C0DF150100DF040100DF340480000478931015FFBFE069
:204700000606000017FFBFE0170080103AE83E1017FFBFE004FFBF1015FFBFE017FFFFE092
:2047200034048000047993102EF6BF183A8801003A8837E01701C0DF170000DF0402C0DEB9
:204740003A2800F804FDFFDE1502C0DF150100DF040100DF340480000478931015FFBFE008
:204760000606000017FFBFE0170080103AE83E1017FFBFE004FFBF1015FFBFE017FFFFE032
:2047800034048000047993102EF6BF183A8801003A8837E01701C0DF170000DF0402C0DE59
:2047A0003A2800F804FCFFDE1503C0DF150200DF040200DF15FF3FE1040F60D117FF3FE182
:2047C0008092040115FEBFE017FEBFE02609001017FEBFE0170380102606001017FEBFE0CF
:2047E0001703801017FF7FE117FE3FE13AE83E100601000017FEBFE03A8837E01701C0DFA9
:20480000170000DF0402C0DE3A2800F804FDFFDE1502C0DF150100DF040100DF15FF3FE103
:2048200017FFBFE02608001017FFBFE0170480102605001017FFBFE01704801017FF3FE154
:204840003AE83E103A8801003A8801003A8837E01701C0DF170000DF0402C0DE3A2800F8DE
:2048600004FFFFDE150000DF3A8839D83A8801003A8837E0170000DF0401C0DE3A2800F802
:2048800004FCFFDE1503C0DF150200DF150100DC040200DF15FE3FE117FEBFE0D000801070
:2048A0001E110010340800040495008417FEBFE0040340013A880910002F02013A8885808C
:2048C0000402801015000010340800040495008417FEBFE0040340013A880910002F0201B7
:2048E0003A888580150000103A88010004FFFFE61702C0DF170100DF170000DC0403C0DEDA
:204900003A2800F804FFFFDE150000DF3A8839D8FA7001003A8801003A8837E0170000DF99
:204920000401C0DE3A2800F804FAFFDE1505C0DF150400DF040400DF15FE3FE115FF7FE160
:2049400017FFBFE01700801015FCBFE017FE3FE100A804014400801015FDBFE0060D0000D1
:2049600017FCBFE01702801017FDFFE03A880D1817FE7FE13A88091040A004011E0200109D
:2049800017FCBFE00607000017FCBFE01700801015FCBFE017FCFFE017FFBFE01EF0BF18C3
:2049A0003A8805003A8837E01701C0DF170000DF0402C0DE3A2800F83A880B203A880F00EE
:2049C0003A880D003A88090081B1040104FEFFDE3A880B00150000DC1501C0DF3A882120B1
:2049E00000C3040134088000040F821017000011170F8020260100103AE83E103A880980AE
:204A000000DB0401C400C0012E1980393AB044213A70C411260F0010030080200300C02890
:204A20001E15C01084FFBF31C4FFFF0106040000030080200300C028C4FFBF311E0EC010F6
:204A400044000021440040291EF9FF313A8805003A2800F81700C020170080281EEEBF1843
:204A600004FFBF31040100210401402936F9BF391EE93F3006F53F003AC8C5103A2800F8A7
:204A8000CC0080202620001007008020262000103A880520060200000700C010261800183B
:204AA00044008010CC00C0101EFB3F181700C010F4BFFF01C4BFFF393A30CA007420A00158
:204AC0003A88C7190420A0313A7046193A7086191E090018040180101700C0103A88CB198C
:204AE0003A30C6003A70C6283A70861926F93F1806010000440080100700C0101EFD3F180B
:204B00003AC805113A2800F83A88052006E73F003A8805003A2800F804FAFFDE150300DC20
:204B200034080004040F02841700C080150440DC1505C0DF175280183A88232026370010E4
:204B40001701C010C4070001160EC0204400001A1E2200888400C0183A88C7183A88C718D9
:204B6000150100123A88C710150040193A8805001705C0DF170440DC170300DC0406C0DEAF
:204B80003A2800F834008000040080102626001004640001150040D9150180D91502C0D961
:204BA00000000000170040D9170180D91702C0D9261D00101700008115010010440000024B
:204BC000175240223A8807001500401215528020156200101563001026DE3F883A88C91856
:204BE0003A8809213A8809111522802144008001176240123A98CC303AB092491562401229
:204C00001542C021840000011ED23F89176300113AB08C211563801106CE3F0004538018F2
:204C20001552801806C63F00C4FFBF0006D03F0004F5FFDE150900DF150640DD150380DC54
:204C4000150AC0DF1508C0DD150780DD150500DD1504C0DC150240DC150100DC150000D9A4
:204C60003A88392844008004C4FF7F0534088000040F821017000012175200450452C04470
:204C8000261C00A0170180A0C4FFFF15160D00B8440000143A8821843A882184042040843A
:204CA0003A8863A43A8821A4261E00E017408080261C80E0C4FFFFBD04FF3F8404FF7F8C34
:204CC0001EF97FBD340080000400801026090010170180A01E300010170080A026320010C5
:204CE0003A8809A015008098000000001700009D1EE43FA0170AC0DF170900DF1708C0DD0C
:204D0000170780DD170640DD170500DD1704C0DC170380DC170240DC170100DC040BC0DEE2
:204D20003A2800F8170180A01700C080C4FFBF102614C0151500008026DE3F183A98C895CA
:204D4000176280A0170180A53A708420260B0010176380A03A7088201E0C002017004089D8
:204D6000170000D93AE83E18170180A01EBFBF151700809826CF3F1506BC3F003AE83E18F1
:204D800006F93F001501C0A506EB3F00170000893AE83E1806F43F00170080A03A8827A019
:204DA0003A88291006B63F003A88050006FB3F0004FDFFDE150200DF040200DF15FF3FE109
:204DC0003A88010017FFBFE015FEBFE017FEBFE02602001070F02A0006010000B0F02A0062
:204DE00006FF3F000001020203030303040404040404040405050505050505050505050502
:204E00000505050506060606060606060606060606060606060606060606060606060606D6
:204E2000060606060707070707070707070707070707070707070707070707070707070796
:204E4000070707070707070707070707070707070707070707070707070707070707070772
:204E6000070707070808080808080808080808080808080808080808080808080808080836
:204E8000080808080808080808080808080808080808080808080808080808080808080812
:204EA0000808080808080808080808080808080808080808080808080808080808080808F2
:204EC0000808080808080808080808080808080808080808080808080808080808080808D2
:204EE000080808082F6465762F6F6E636869705F666C6173685F305F64617461000000007F
:204F00002F6465762F6E756C6C0000004300000000000000000000000001200000000000D5
:204F200000000000C039100018341000E434100080351000E83610000000100000C0080019
:204F4000000000000000000000000000000000000000000000000000000000000000000051
:204F6000000000000000000000000000000000000000000000000000000000000000000031
:204F8000000000000000000000000000000000000000000000000000000000000000000011
:204FA0000000000000000000000000000000000000000000000000000000000000000000F1
:204FC000000000000000000000000000002220000100000000000000FF3F0000010000004F
:204FE00000400000FF7F00000100000000800000FFDF02000100000000E00200FF9F04000D
:205000000100000000A00400FFBF08000010000024082000240820001C0120000000000040
:205020000000000000000000D84510000000000000000000000000002C02200000000000F5
:20504000000000002C02200000000000000000002C022000000000000000000000000000B4
:20506000000000000000000000000000000000000000000000000000000000000000000030
:20508000000000000000000000000000000000000000000000000000000000000000000010
:2050A0000000000000000000000000000000000000000000000000000000000000000000F0
:2050C0000000000000000000000000000000000000000000000000000000000000000000D0
:2050E0000000000000000000000000000000000000000000000000000000000000000000B0
:2051000000000000000000000000000000000000000000000000000000000000000000008F
:2051200000000000000000000000000000000000000000000000000000000000000000006F
:2051400000000000000000000000000000000000000000000000000000000000000000004F
:2051600000000000000000000000000000000000000000000000000000000000000000002F
:2051800000000000000000000000000000000000000000000000000000000000000000000F
:2051A00000000000000000000000000000000000000000000000000000000000C006200009
:2051C0002807200090072000000000000000000000000000000000000000000000000000C9
:2051E000000000000000000000000000280120000000000000000000000000000000000066
:2052000000000000000000000000000000000000000000000000000000000000000000008E
:2052200000000000000000000000000000000000000000000000000000000000000000006E
:2052400000000000000000000000000000000000000000000000000000000000010000004D
:20526000000000000E33CDAB34126DE6ECDE05000B00000000000000000000000000000002
:2052800000000000000000000000000000000000000000000000000000000000000000000E
:2052A0000000000000000000000000000000000000000000000000000000000000000000EE
:2052C0000000000000000000000000000000000000000000000000000000000000000000CE
:2052E0000000000000000000000000000000000000000000000000000000000000000000AE
:2053000000000000000000000000000000000000000000000000000000000000000000008D
:2053200000000000000000000000000000000000000000000000000000000000000000006D
:2053400000000000000000000000000000000000000000000000000000000000000000004D
:2053600000000000000000000000000000000000000000000000000000000000000000002D
:2053800000000000000000000000000000000000000000000000000000000000000000000D
:2053A0000000000000000000000000000000000000000000000000000000000000000000ED
:2053C0000000000000000000000000000000000000000000000000000000000000000000CD
:2053E0000000000000000000000000000000000000000000000000000000000000000000AD
:2054000000000000000000000000000000000000000000000000000000000000000000008C
:2054200000000000000000000000000000000000000000000000000000000000000000006C
:2054400000000000000000000000000000000000000000000000000000000000000000004C
:2054600000000000000000000000000000000000000000000000000000000000000000002C
:2054800000000000000000000000000000000000000000000000000000000000000000000C
:2054A0000000000000000000000000000000000000000000000000000000000000000000EC
:2054C0000000000000000000000000000000000000000000000000000000000000000000CC
:2054E0000000000000000000000000000000000000000000000000000000000000000000AC
:2055000000000000000000000000000000000000000000000000000000000000000000008B
:2055200000000000000000000000000000000000000000000000000000000000000000006B
:2055400000000000000000000000000000000000000000000000000000000000000000004B
:2055600000000000000000000000000000000000000000000000000000000000000000002B
:2055800000000000000000000000000000000000000000000000000000000000000000000B
:2055A0000000000000000000000000000000000000000000000000000000000000000000EB
:2055C00000000000000000000000000000000000000000000000000000000000FFBF080005
:2055E00000A00400E40820002C01FA77E4092000A4082000FA77000014082000140820009B
:205600001C0820001C0820002C0220002C022000FFFFFFFF000000003408200034082000B2
:20562000D4032000D40320000000000000000000000000000000000000000000000000007C
:2056400000000000000000000000000000000000000000000000000000000000000000004A
:2056600000000000000000000000000000000000000000000000000000000000000000002A
:2056800000000000000000000000000000000000000000000000000000000000000000000A
:2056A0000000000000000000000000000000000000000000000000000000000000000000EA
:0200000280007C
:00000001FF
